:080000000C944F090C94000060
:100008000C9400000C9400000C9400000C94000068
:100018000C9400000C9400000C9400000C94000058
:100028000C9400000C9400000C9400000C94000048
:100038000C9400000C9400000C9402160C94000020
:100048000C9400000C9400000C9400000C94000028
:100058000C9400000C9400000C9400000C94000018
:100068000C9400000C9400000C9400000C94000008
:100078000C94520C0C9400000C949D0C0C940000F1
:100088000C94000005072060000000000000000438
:100098000A040007000700147F147F14242A7F2A0B
:1000A80012231308646236495522500005030000E4
:1000B800001C2241000041221C00082A1C2A0808B2
:1000C800083E0808005030000008080808080030FA
:1000D80030000020100804023E5149453E00427F8E
:1000E800400042615149462141454B311814127F65
:1000F8001027454545393C4A4949300171090503EE
:100108003649494936064949291E00363600000055
:100118005636000000081422411414141414412205
:100128001408000201510906324979413E7E111135
:10013800117E7F494949363E414141227F41412252
:100148001C7F494949417F090901013E414151321A
:100158007F0808087F00417F41002040413F017F20
:10016800081422417F404040407F0204027F7F0400
:1001780008107F3E4141413E7F090909063E415131
:10018800215E7F09192946464949493101017F0104
:10019800013F4040403F1F2040201F7F2018207F04
:1001A8006314081463030478040361514945430048
:1001B800007F4141020408102041417F00000402F1
:1001C8000102044040404040000102040020545411
:1001D80054787F4844443838444444203844444898
:1001E8007F3854545418087E090102081454543CAA
:1001F8007F0804047800447D40002040443D00000E
:100208007F10284400417F40007C041804787C0853
:1002180004047838444444387C141414080814142A
:10022800187C7C080404084854545420043F444073
:10023800203C4040207C1C2040201C3C4030403C5E
:1002480044281028440C5050503C4464544C4400FA
:100258000836410000007F00000041360800020116
:100268000204027F4141417F000E302B0A0A0A0A2C
:100278000A0A0A0A0A0A0A0A0A0A0A0A090A0A0AD7
:100288000A0A0A0A0A0A0A0A0A0A0A0A0A0A0A0AC6
:100298000A0A0A0A0A0A0A00FCFE03030303FEFC10
:1002A80000000F1F303030301F0F0000180C06FF01
:1002B800FF00000000003030303F3F303030000099
:1002C8000C0E030383C37E3C0000383C36333130C8
:1002D800303000000C0EC3C3C3C3FE3C00000C1C2E
:1002E800303030301F0F0000C0E0B0988C86FFFF20
:1002F80080000101010101013F3F01007F7F63632D
:100308006363C38300000C1C303030301F0F0000C3
:10031800FCFEC3C3C3C38E0C00000F1F3030303047
:100328001F0F000003030303C3F33F0F0000000087
:10033800003E3F03000000003CFEC3C3C3C3FE3CB5
:1003480000000F1F303030301F0F00003C7EC3C349
:10035800C3C3FEFC00000C1C303030301F0F0000FF
:100368000000183C3C180000000000000C1E1E0C89
:100378000000000000000000000000000000000075
:100388000000000000000000000000000000000065
:100398000000000000000000000000000000000055
:1003A8000000000000000000000000000000000045
:1003B8000000000000000000000000000000000035
:1003C8000000000000000000000000000000000025
:1003D800000000000000002060E0E0E0E0E06020B5
:1003E800000000010301000000FCFE838383838377
:1003F80083FEFC3F3F0101010101013F3FFFFFC3B5
:10040800C3C3C3C3C3FE3C3F3F3030303030301F1E
:100418000FF8FC0603030303030E0C070F18303014
:100428003030301C0CFFFF030303030306FCF83FC6
:100438003F3030303030180F07FFFFC3C3C3C3C38A
:10044800C3C3033F3F3030303030303030FFFFC35C
:10045800C3C3C3C30303033F3F0000000000000001
:1004680000F8FC06030303838E8C80070F183030D6
:1004780030313F1F01FFFFC0C0C0C0C0C0FFFF3FF9
:100488003F0000000000003F3F00000303FFFF03A0
:10049800030000000030303F3F3030000000000013
:1004A8000303FFFF0303000C1C3030301F0F000054
:1004B80000FFFFC0E030180C0603013F3F000103B6
:1004C800060C183020FFFF00000000000000003F6D
:1004D8003F3030303030303030FFFF1C70C0C070DB
:1004E8001CFFFF3F3F0000010100003F3FFFFF0EE0
:1004F80038E0800000FFFF3F3F000000030E183F78
:100508003FF8FC060303030306FCF8070F18303016
:100518003030180F07FFFFC3C3C3C3C3E77E3C3F98
:100528003F0000000000000000F8FC06030303037E
:1005380006FCF8070F183030343C183F27FFFFC37C
:10054800C3C3C3E77E3C003F3F0103070E1C38309E
:10055800203C7EC3C3C3C3C3C38E0C0C1C303030D5
:100568003030301F0F03030303FFFF0303030300AF
:100578000000003F3F00000000FFFF0000000000F7
:1005880000FFFF0F1F3030303030301F0FFFFF00EB
:100598000000000000FFFF03070C183030180C079C
:1005A80003FFFF0080E0E08000FFFF3F3F0E0300F5
:1005B80000030E3F3F0F1FB0E0C0C0E0B01F0F3E6A
:1005C8003F0301000001033F3E1F3F60C08080C021
:1005D800603F1F000000003F3F00000000030303CE
:1005E80083C363331B0F073C3E3331303030303028
:1005F80030000005203B010403040404040404043F
:1006080004040404040404030404040404040404A3
:100618000304040404040404040404040404040196
:100628000404030504040404040403040405040383
:1006380003000000000000000000000000000000AF
:1006480000000000000000000000000000000000A2
:100658000000000000000000000000000000000092
:10066800000000000000000000180601000E111133
:100678000E121F10191515121115150A0C0A1F084C
:10068800171515090E151508011905030A15150A78
:100698000215150E000A0000100A00040A11000ACB
:1006A8000A0A0A00110A0400011502000000001ECF
:1006B80005051E1F15150A0E11110A1F11110E1F0F
:1006C8001515111F0505010E11190A1F04041F1F16
:1006D80008110F011F040A111F10101F0204021F26
:1006E8001F02041F0E11110E1F0505020E11191EFF
:1006F8001F050D1212151509011F010F10100F0704
:100708001818071F0804081F1B04041B031C0319DF
:100718001513070730021C22414141221C1C3E7F51
:100728007F7F3E1C0A0E3002E0F0180C0C0C0C18EF
:10073800F0E003070C181818180C0703E0F0F8FC91
:10074800FCFCFCF8F0E003070F1F1F1F1F0F070337
:10075800000530070A09090909090A0512051800E0
:100768001C001E001F100000000000000000100008
:1007780018000000000000100018001C0000000015
:10078800100018001C001E0000100018001C001E9D
:10079800001F000000000000000000000001030727
:1007A8000F1F3F7FFF000000000101010A000F003A
:1007B8000101E409E609EA09EE09F209F609FA096C
:1007C800FE09020A040A070A0A0A0D0A100A130A8D
:1007D800160A190A1C0A1F0A220A250A280A2B0ABD
:1007E8002E0A310A340A370A3A0A3D0A400A430AED
:1007F800460A490A4C0A4F0A520A550A580A5B0A1D
:100808005E0A610A630A670A6B0A6F0A730A770A43
:100818007B0A7F0A830A870A8B0A8F0A930A980A37
:100828009D0AA20AA70AAC0AB10AB60ABB0AC00AFC
:10083800C50ACA0ACF0AD40AD90ADE0AE30A040A90
:10084800070A0A0A0D0A100A130A160A190A1C0AC4
:100858001F0A220A250A280A2B0A2E0A310A340AF4
:10086800370A3A0A3D0A400A430A460A490A4C0A24
:100878004F0A520A550A580A5B0A5E0AE00AE60A53
:10088800E90AEC0AEF0AF20AF50AF80AFB0AFE0A74
:10089800010B040B070B0A0B0D0B100B130B160B9C
:1008A800190B1C0B1F0B220B250B280B2B0B2E0BCC
:1008B800310B340BE30A040A070A0A0A0D0A100A64
:1008C800130A160A190A1C0A1F0A220A250A280AE4
:1008D8002B0A2E0A310A340A370A3A0A3D0A400A14
:1008E800430A460A490A4C0A4F0A520A550A580A44
:1008F8005B0A5E0AE00AE60AE90AEC0AEF0AF20A6B
:10090800F50AF80AFB0AFE0A010B040B070B0A0B8F
:100918000D0B100B130B160B190B1C0B1F0B220BBB
:10092800250B280B2B0B2E0B310B340BE30A040A77
:10093800070A0A0A0D0A100A130A160A190A1C0AD3
:100948001F0A220A250A280A2B0A2E0A310A340A03
:10095800370A3A0A3D0A400A430A460A370B040A8C
:10096800070A0A0A0D0A100A390B01002B38343914
:100978003833373132393431656D6667766A686A7B
:100988006268676E6478666369643D3639237B27DD
:100998006C656E68273A272A316F666623277D7B48
:1009A800276C656E68273A272A326F666623277D8B
:1009B8007B276C656E68273A272A336F6E382327A2
:1009C8007D7B276C656E68273A272A346F6E313530
:1009D80023277D20FFFFFFFFFFFFFFFF0000535588
:1009E8004E004D4F4E00545545005745440054485D
:1009F8005500465249005341540000003031003040
:100A080032003033003034003035003036003037B3
:100A180000303800303900313000313100313200D7
:100A2800313300313400313500313600313700318F
:100A3800380031390032300032310032320032337E
:100A48000032340032350032360032370032380096
:100A580032390033300033310000004A414E00463D
:100A68004542004D415200415052004D4159004A03
:100A7800554E004A554C0041554700534550004FCC
:100A88004354004E4F56004445430032303137003E
:100A980032303138003230313900323032300032C1
:100AA80030323100323032320032303233003230BC
:100AB80032340032303235003230323600323032A1
:100AC8003700323032380032303239003230333089
:100AD80000323033310032303332003030003333BB
:100AE80000333400333500333600333700333800F1
:100AF80033390034300034310034320034330034B8
:100B08003400343500343600343700343800343992
:100B180000353000353100353200353300353400CA
:100B280035350035360035370035380035390000A1
:100B380000414C4C00535052494E4B4C45004D65BA
:100B48006E750020003A003D004D454E5500536536
:100B5800742054696D6500536574204E6F64650098
:100B680053696D20496E6974004765742047505277
:100B780053005765627369746520434D44200043F0
:100B88004D5449004F4B0041542B4349504D4F445D
:100B9800453D300A0D0041542B43495043534750BB
:100BA8003D312C22696E7465726E6574222C222286
:100BB8002C22220A0D0041542B43495048454144F8
:100BC8003D300A0D0041542B434950535052543D77
:100BD800310A0D0041542B434950535249503D307E
:100BE8000A0D0041542B43495053434F4E540A0DAC
:100BF8000041542B4349504D55583D300A0D004192
:100C0800542B4343414C523F0A0D00415445300A8E
:100C18000D0041542B434D47463D310A0D004154C8
:100C28002B434E4D493D322C312C302C302C300A80
:100C38000D0041542B435341530A0D0041542B439B
:100C48004D47443D310A0D00476F74206E6577208B
:100C5800534D530A0041542B434D47523D310A0D21
:100C68000053656E64696E6720534D532E2E2E0A0D
:100C78000041542B434D47463D310D0A0041542B4A
:100C8800434D47533D003E20002E2E2E20646F6EAC
:100C98006521006F6E006F666600696E666F0031D1
:100CA8003A20000D323A2000206F6E00206F6666F1
:100CB800000D333A20000D343A20000D353A20005B
:100CC800476F74204750525320434D44200A004137
:100CD800542B43495053544152543D2254435022BB
:100CE8002C223130332E31382E362E313334222C0B
:100CF80038300D00434F4E4E454354204F4B004172
:100D0800542B43495053454E440D00474554202F1A
:100D180069727269676174696F6E2F7068702F727B
:100D2800656365697665646174612E7068703F7685
:100D3800616C75653D373020485454502F312E3141
:100D48000D0A00484F53543A207777772E6F706515
:100D58006E726F626F6875732E636F6D0D0A004354
:100D68006F6E6E656374696F6E3A20636C6F73653E
:100D78000D0A0D0A006F6B0053656E6420446174A0
:100D8800610A00474554202F697272696761746966
:100D98006F6E2F7068702F73656E64646174612E56
:100DA8007068703F76616C75653D312C352C322C3E
:100DB800362C323220485454502F312E310D0A002F
:100DC800646F6E65004154442B38343938333731F9
:100DD800323934313B0D0A007374617274206765CF
:100DE80074206D6F6E65790A0041542B4355534446
:100DF8003D312C002A3130312300676574206D6F36
:100E08006E657920726573706F6E736500707574A6
:100E1800206D6F6E6579206F6E2070686F6E650A41
:100E2800002A3130302A002A346F6E002A336F6E60
:100E3800002A326F6E002A316F6E00534554204EDF
:100E48004F44450040004E4F444520004F6E2F4F01
:100E580066660053657420486F7572005365742088
:100E68005765656B2044617900537461747573002C
:100E7800484F5552005745454B20444159004D4F66
:100E88004E54480059454152004D494E555445006D
:100E98005345434F4E44005345542054494D450053
:100EA800536574204461746500534554204441548B
:100EB80045005765656B20646179004D6F6E7468F5
:100EC8000059656172004D696E75746500536563FC
:100ED8006F6E640074657374000001002D4E414EFE
:100EE80000494E46000001000200AE070A00040057
:100EF800B0071000EA09BA074000FA09CA071A0041
:100F08003A0A0A082000540A24087800740A440897
:100F18007800EC0ABC083000640B34090E00940B0E
:100F280064090100AA0B7209090000053D0B0500C0
:100F38000905460B02000E05110A02001005200AD9
:100F4800020012054B0B020014054B0B020016059C
:100F58004D0B020018054F0B05001A05510B09002F
:100F68001F05560B090028055F0B09003105680BA2
:100F780009003A05710B0D0043057A0B0C00BE0BF6
:100F880074095A00EB0B82090200460CDC090200C6
:100F9800480CDE0902004A0CE00902004C0CE20988
:100FA80005005005870B030055058C0B0F005805ED
:100FB8008F0B200067059E0B0F008705BE0B0F00E7
:100FC8009605CD0B0F00A505DC0B0E00B405EB0B49
:100FD8000E00C205F90B0C00D005070C0700DC0554
:100FE800130C0C00E3051A0C1400EF05260C0A007C
:100FF80003063A0C0C000D06440C0D001906500CA3
:101008000C0026065D0C0C003206440C10003E064F
:10101800690C0C004E06790C03005A068C0B09006B
:101028005D06850C03006606820C030069068E0CBB
:101038000A006C06910C030076069B0C04007906E6
:101048009E0C05007D06A20C04008206A70C030076
:1010580086069B0C040089069E0C05008D06AB0CC9
:1010680004009206B00C05009606B40C05009B0619
:10107800B90C0400A006B00C0500A406B40C0500C9
:10108800A906BE0C0400AE06B00C0500B206B40CEE
:101098000500B706C30C0400BC06B00C0500C0066A
:1010A800B40C0F00C506C80C2500D406D70C0B00DD
:1010B800F906FC0C0C000407070D030010078E0C42
:1010C80038001307130D1C004B074B0D160067075C
:1010D800670D03007D078C0B030080077D0D0B0057
:1010E8008307800D25008E07D70C0B00B307FC0C77
:1010F8000C00BE07070D0300CA078E0C3D00CD0784
:101108008B0D1C000A084B0D16002608670D0300FE
:101118003C088C0B05003F08C80D13004408CD0D92
:1011280011005708E00D0B006808F10D0600730860
:10113800FC0D03007908820C13007C08020E1300D2
:101148008F08020E1400A208150E0B00B608F10D48
:101158000600C108290E0300C708820C0500CA084A
:101168002F0E0500CF08340E0500D408390E0500EF
:10117800D9083E0E0900DE08430E0200E7084C0EAF
:101188000600E9084E0E0700EF08540E0900F6089D
:101198005B0E0D00FF08640E07000C09710E0500B8
:1011A8001309780E020018094C0E02001A094C0E99
:1011B80009001C097D0E020025094C0E02002709B2
:1011C8004C0E090029097D0E020032094C0E02005E
:1011D80034094C0E04003609820E02003A094C0EFE
:1011E80002003C094C0E06003E09860E0200440926
:1011F8004C0E020046094C0E050048098C0E0200F0
:101208004D094C0E02004F094C0E05005109780E8D
:10121800020056094C0E020058094C0E07005A09E4
:10122800910E020061094C0E020063094C0E070082
:101238006509980E02006C094C0E02006E094C0EEE
:10124800090070099F0E09007909A80E0900820992
:10125800560B09008B09B10E09009409BA0E040057
:101268009D096D0E0600A109C30E0500A709C90E48
:101278000900AC099F0E0500B5095F0E0700BA0901
:10128800CE0E0700C109D50E0500C809DC0E010005
:10129800C410E20E0000F894EE27ECBBF1E0F5BFB5
:1012A800E5BFE0936C008DE0A2E0BB27ED938A9543
:1012B800E9F780E090E1A0E0B1E0ED930197E9F76C
:1012C800EEEEFEE085919591009761F0A591B591BC
:1012D80005901590BF01F00105900D920197E1F777
:1012E800FB01F0CF8BBFEFEFEDBFE0E1EEBFC0E059
:1012F800D5E00C94F616AA931A9310E01830A0F4CF
:10130800E981E07811F4C69801C0C69A8DE08A9503
:10131800F1F7E981EE0FE9830E94C91EA981EA2B42
:10132800E983C3981F5FEACF188125C01A930A93EF
:1013380010E000E0083050F48DE08A95F1F7110FC5
:101348000E94C91E1E2BC3980F5FF4CFE12F6CC1FA
:10135800AA93C5980E94D11E3BC3AA93C598E98158
:10136800E062AE2F05C0AA93C598E9810E94D91EF4
:10137800C2DF0E94D11E22960895AA93C598EA81D9
:101388000E94D91EB8DFA981B6DF0E94E81E11C0ED
:101398000E94ED1EC598E981EA93A981E4DF1DC585
:1013A8000E94ED1EC598EA81EA93EA81EA93AA8130
:1013B800E4DF23960895C49A88E795E00197F1F74A
:1013C800C498C59AC39888EC90E00197F1F70E94F9
:1013D800F51EA1EEBDDFE0E0EA93AFE1BEDFA2E0DB
:1013E800B0E00E94F822E5E0EA93A2E0B6DFE6E08A
:1013F800EA93A7E0B2DFEDE1EA93A4E0AEDF089557
:10140800E0E0EA93AFE1A9DFC49A84E091E00197B4
:10141800F1F708950E94F51EECE1EA93AFE09DDF35
:10142800E2E0EA93AFE099DFEAE0EA93A091AE0B3D
:10143800AFDFEBE0EA93A091AF0BAADFECE0EA9311
:10144800E091B00BEA93A091AF0BAADFEDE0EA932D
:10145800E091B10BEA93A091AF0BA2DF0895C49875
:101468000E94E81EC598A1E646DF8BE18A95F1F750
:101478005DDFF0E0E093B20BF093B30B57DFA4EB22
:10148800BBE00E94FD1EA6EBBBE00E94FD1EA8EB80
:10149800BBE00E94FD1EAAEBBBE00E94FD1EACEB68
:1014A800BBE0F0E0ED93FC93C59AC49A0E94F51E48
:1014B80008950E948818E0E0EA93A0E00E944F1C7B
:1014C8000E94021F08950E94091FF3DF0E940E1F49
:1014D800A0E30E947D1D0E940E1FABE00E947D1DAF
:1014E800E0E0EA93E5E2EA93EAE1EA93A0E30E9406
:1014F8007D1D0E94021FE2E1EA93E2E0EA93A0E088
:10150800B5E00E94081CE2E0EA93E7E2EA93A9E06A
:10151800B5E00E94081C0E94141F0630E0E01E0778
:101528002CF40E941F1F0F5F1F4FF7CFE8E5F7E06D
:101538000E94341F772039F0E8E4EA93E3E0EA9365
:10154800AEE0B5E006C0E8E4EA93E3E0EA93A0E1A0
:10155800B5E00E94081C68C00E94091F0E94391F3C
:10156800E6E0F0E0FA93EA93EDE0F0E0FA93EA932C
:10157800ECE0F0E0FA93EA93AAEABBE00E94751760
:101588000E94451FEBE0EA93EDE0EA93E091AB0B94
:10159800A4E6BBE00E94481FECE2EA93EDE0EA9380
:1015A800E091AC0BACEEBAE00E94481FEAEFF5E020
:1015B8000E94341FE2E4EA93EDE0EA93E091AD0B78
:1015C800A4E7BAE00E94481FE2E4EA93E6E1EA935E
:1015D800E62DAAEEB9E00E94481FE2E0EA93EEE1A8
:1015E800EA93EC2DAAE3BAE00E94481FA2E1B5E015
:1015F8000E941C1CED2DAAEFB9E00E94521FA4E125
:10160800B5E00E941C1CE091AA0BA4E5BAE00E9478
:10161800521F0E94141F0630E0E01E072CF40E949F
:101628001F1F0F5F1F4FF7CF09911991089555207C
:1016380049F00E94451FE1E2EA93EDE0EA93A6E152
:10164800B5E008C00E94451FE1E2EA93EDE0EA93A5
:10165800A8E1B5E00E94081CE52D0E9425235E2E16
:101668000895BA93AA932E970E94091F0E945C1F9F
:10167800AEE0B0E00E94B11DA889B989EC91E030D4
:1016880079F00E94631FA889B989EC91D001EC9385
:101698000F5F1F4FE889F9893196E88BF98BECCFFA
:1016A8008A92EB89EA93DE0114960E94081C19813C
:1016B8000881B6C00E946A1FE130A0E0FA0719F459
:1016C8000E94B1148AC3E230A0E0FA0711F4DAD517
:1016D80084C3E330A0E0FA0709F47FC3E430A0E054
:1016E800FA0711F49FD079C378C30E946A1F309714
:1016F80031F4E82DE750EA93EA2DE85009C0E82DC7
:10170800E750EA93E981E150EE0FEE0FEE0FE15F4B
:10171800EA93A0E20E94FF1B0E946F1F5EC30E9413
:10172800761FC7DEAAE1B5E00E947B1FAFE1B5E0F6
:101738000E94821FA8E2B5E00E94891FA1E3B5E0DC
:101748000E94901FAAE3B5E08CDF21E030E0CB993E
:1017580005C0CB9BFECFD901ADDF13C0CC9909C022
:10176800CC9BFECF0E94971F14F00E94A01F0E94DE
:10177800A81FCD9905C0CD9BFECF0E94AE1F02C009
:10178800E6CFCFCF0E94EF2324960895BA93AA9369
:101798002E970E94761F0E94B31FAEE0B0E00E9411
:1017A800B11DAA89BB89EC91E03079F00E94BA1F7B
:1017B800AA89BB89EC91D001EC930F5F1F4FEA898E
:1017C800FB893196EA8BFB8BECCFF801A6E0B0E001
:1017D8000E943823A4E5B0E0AE1BBF0BE2E0F0E0C6
:1017E8000E9450239F012A93E2E0EA93DE011696B5
:1017F8000E94081C0E94C11FE4E5EA93AAE00E9427
:101808005C1C0E940E1FA0E30E947D1DEFE0F0E02B
:101818005F01EAE0F0E04F010E946F1F0E94EF2392
:101828006496089546DEA3E4B5E0B0DF0E94C61FC3
:10183800CD9903C0CD9BFECF0895FACFAA81BB8175
:10184800A634E0E0BE0744F5E881F981E130A0E084
:10185800FA0719F40E94CD1F1BC0E230A0E0FA0776
:1018680019F40E94D61F14C0E330A0E0FA0719F457
:101878000E94DF1F0DC0E430A0E0FA0719F40E94AF
:10188800E81F06C0E530A0E0FA0731F40E94F11F16
:10189800E1E0F0E00E94C0232C9608950E94FA1F10
:1018A8001A930A9310919B0000919C00E12FEC7110
:1018B800E9F4E091840EEF5FE093840EE150F0E0EC
:1018C800EC5BF14F0083A091840EA03419F4E0E0A2
:1018D800E093840EA091860EAF5FA093860EA0348D
:1018E80029F4E0E0E093860E689420F8E0914E0C2D
:1018F800F0914F0CE05BF34F0083A0E5B5E0FBD01F
:10190800E03009F07ED1A0914E0CB0914F0CA43F6D
:10191800E1E0BE0729F4E0E0E0934E0CE0934F0CC1
:10192800AEE4BCE00E940820099119910E940E20A3
:101938001895AA93EA93FA93EFB7EA93E091C90E40
:10194800E030B1F0E150E093C90EE091C80EEF5FCE
:10195800E093C80EE150F0E0E957F14FE081E093E1
:101968009C00A091C80EA03419F4E0E0E093C80EE2
:10197800E991EFBFF991E991A9911895AA93A091DE
:10198800C90EA034E1F3F894E091C90EE03021F4D7
:10199800E0919B00E072C1F4E091C70EEF5FE09325
:1019A800C70EE150F0E0E957F14FA881A083A0915C
:1019B800C70EA03419F4E0E0E093C70EE091C90E19
:1019C800EF5FE093C90E03C0E881E0939C00789430
:1019D80021960895BA93AA93A881B981EC91E03031
:1019E80061F0AC91CBDFA2E3B0E00E94F822E8817D
:1019F800F9813196E883F983EFCFEFC1BA93AA93BF
:101A0800E2970E94091F0E945C1FA2E3B0E00E94B7
:101A1800B11DA8ADB9ADEC91E03079F00E94631F1B
:101A2800A8ADB9ADEC91D001EC93E8ADF9AD319624
:101A3800E8AFF9AF0F5F1F4FECCF00E010E0ECA963
:101A4800FDA90E171F077CF4DE011296C3DFE5E53A
:101A5800F5E0FA93EA93A8ADB9AD0AD0E03021F4E5
:101A68000F5F1F4FECCF772419810881EA960895FC
:101A7800BA93AA9364970E94761F2091A20B309183
:101A8800A30B0E94B31FA4E1B0E00E94B11DAA8D70
:101A9800BB8DEC91E03079F00E94BA1FAA8DBB8D06
:101AA800EC91D001EC93EA8DFB8D3196EA8FFB8F98
:101AB8000F5F1F4FECCFF9010E941C200E941B23CF
:101AC8000E940223E88DF98D0E941B230E94E123C6
:101AD80068F4E0E5FCE0FA93EA93DE0116960E94CA
:101AE800DF1D309711F0E1E002C0E5CFE0E00E9491
:101AF800EF236C960895BA93AA9324970E94091F1E
:101B08000E945C1FA4E0B0E00E94B11DAE81BF81BD
:101B1800EC91E03049F00E94631FAE81BF810E94C2
:101B280025200F5F1F4FF2CF00E010E00430E0E007
:101B38001E07CCF4E3E0F0E0E01BF10BDE011296A7
:101B4800AE0FBF1FAC91E0914E0CF0914F0CE01B13
:101B5800F10BE05BF34FE081EA1711F0E0E004C01D
:101B68000F5F1F4FE3CFE1E01981088128960895A0
:101B7800E0E5FCE00E942E20A4EFB1E00E94B11D38
:101B8800E0E0E0934E0CE0934F0C0895E8E5F5E0B3
:101B98000E943320E7E6F5E00E943320E7E8F5E00D
:101BA8000E943320E6E9F5E00E943320E5EAF5E0FB
:101BB8000E943320E4EBF5E00E943320E2ECF5E0EC
:101BC80016C0E0EDF5E00E943320ECEDF5E00E9450
:101BD8003320E3EEF5E00E943320EFEEF5E00E94BB
:101BE8003320E3E0F6E00E943320EDE0F6E0FA93DC
:101BF800EA93E2E3F0E0FA93EA93A5E0B0E0FEDED0
:101C080008956997E3E0E883E0E0E9830E94E6232A
:101C180000E010E020E030E040E050E00E943D208D
:101C28000E944020A5DF44240E94021F0E948818B9
:101C3800EAE0EA93E0E0EA93A9E1B6E00E94081C32
:101C4800E6E2F6E00E943320E2E3F6E00E94332069
:101C580000E010E00E944420EC91E03009F451C00B
:101C68000E944420AC91A23229F44F5F5F4F20E0DC
:101C780030E044C0E3E0F0E0E417F50769F4F90167
:101C88002F5F3F4FDE011896EA0FFB1F0F010E94DE
:101C98004420EC91D001EC930E944420AC91AA32EC
:101CA80069F520E030E0F8013197E05BF34FA0815F
:101CB800A332E1F0F9012F5F3F4FDE015596AE0FD9
:101CC800BF1FF8010F5F1F4FE05BF34FE081EC93FC
:101CD8000E944420AC91AD3031F4F801EF5AF34F33
:101CE800A081AA3009F001C001C0DDCFDE01559600
:101CF80076D00E943D200E94402003C00F5F1F4FF6
:101D0800A9CF0E94C11FDE011A960E94081CE0E0BC
:101D1800EA93E4E1EA93DE0157960E94081C0E94C8
:101D28003D200E9440200E9449200E944D200E9490
:101D3800AE1F1EDF0E94ED236F960895BA93AA93F3
:101D480044240E94021F0E948818E0E0EA93EA9364
:101D5800AEE3B6E00E94081CEEE4F6E00E943320F1
:101D6800EAE5F6E0FA93EA93A0EDB7E081DEADE5A7
:101D7800B6E030DEA2E202DEAEEBBBE02BDE0E9474
:101D8800C11FAEEBBBE00E94081CA2E2F7DDA6E68D
:101D9800B6E020DEE9E6F6E0FA93EA93A8E8B3E1D4
:101DA80067DEA881B981EC91E03041F0AC91E6DDC5
:101DB800E881F9813196E883F983F3CFAAE1DEDD82
:101DC800EFE0EA93EEE1EA93ACE6B6E00E94512038
:101DD8000E9488180E94AE1FCBDE22960895BA93FF
:101DE800AA93EF97EF97AC970E94091F0E945C1F78
:101DF8000E944020FE013C960E942E20A0EAB0E0FE
:101E08000E94B11D0E945420E03091F0F801DE01DB
:101E18001296EA0FFB1FBF010E945420DB01EC93CE
:101E2800DE01A455BF4F0E9408200F5F1F4FEACF65
:101E38000E945C20A6E7B6E00E94DF1D309729F0DB
:101E4800E0E0EA93DE0113967ED00E945C20A9E7C9
:101E5800B6E00E94DF1D309729F0E1E0EA93DE0149
:101E6800139671D00E945C20ADE7B6E00E94DF1D9A
:101E7800309709F462C00E946120A2E8B6E00E948F
:101E8800C11D949905C00E946120A6E8B6E004C06F
:101E98000E946120A9E8B6E00E94C11D0E9461204D
:101EA800ADE8B6E00E94C11D979905C00E94612067
:101EB800A2E9B6E004C00E946120A6E9B6E00E944B
:101EC800C11D0E946120ABE9B6E00E94C11DAF9917
:101ED80005C00E946120A0EAB6E004C00E9461200B
:101EE800A4EAB6E00E94C11D0E946120A9EAB6E0FA
:101EF8000E94C11DDF9905C00E946120AEEAB6E0CC
:101F080004C00E946120A2EBB6E00E94C11D0E949D
:101F18006120A7EBB6E00E94C11DDA9905C00E94B6
:101F28006120ACEBB6E004C00E946120A0ECB6E0F2
:101F38000E94C11DDE011C9601DF19810881EF9600
:101F4800EF96E0960895BA93AA936297E0E0E88343
:101F5800E983EA83EB830E94E62301E010E030E0A6
:101F6800A801FE013E960E942E200E944020FE01FC
:101F78003A960E942E200E944020A88DB98DEC919F
:101F8800E03091F00E946620EA0FFB1F0F01A88D38
:101F9800B98DEC91D001EC93E88DF98D3196E88FED
:101FA800F98F0E946B20E9CFE1E0F0E0E887F9873C
:101FB8000E946620AE0FBF1FAC91A33221F1E885C5
:101FC800F9853197DE011E96AE0FBF1FAC91AE3674
:101FD80039F0DE011E96AE0FBF1FAC91A63609F48C
:101FE80031E0303069F0EE81FF81DE011A96EA0FA8
:101FF800FB1F0F010E946620AE0FBF1F0E94252005
:102008000E946B20D5CFDE011A960E94F61DAF0103
:10201800E0E0EA93EEE1EA93DE011C960E94081CD8
:10202800042E052A09F4A801EF85F0E0E133A0E0C9
:10203800FA0789F4EA8DE03011F4949801C0949A73
:10204800A8E2B0E0EA8D0E94C823AEE4B0E0FA014D
:102058000E94C0236DC0E233A0E0FA0789F4EA8D3C
:10206800E03011F4979801C0979AA0E5B0E0EA8DA6
:102078000E94C823A6E7B0E0FA010E94C02358C016
:10208800E333A0E0FA0789F4EA8DE03011F4AF9861
:1020980001C0AF9AA8E7B0E0EA8D0E94C823AEE974
:1020A800B0E0FA010E94C02343C0E433A0E0FA077D
:1020B80089F4EA8DE03011F4DF9801C0DF9AA0EAD4
:1020C800B0E0EA8D0E94C823A6ECB0E0FA010E94B5
:1020D800C0232EC0EA8DE03011F4949801C0949A80
:1020E800EA8DE03011F4979801C0979AEA8DE030B4
:1020F80011F4AF9801C0AF9AEA8DE03011F4DF987F
:1021080001C0DF9AE1E0F0E0E887F987A885B985A2
:10211800159774F4A885B985E8E20E943223E05047
:10212800F040DF01EA8D0E94C8230E946B20EECFA9
:102138000E94ED236B9608950E94091F44240E9473
:10214800021F0E947120A5ECB6E00E94081CA4EDB5
:10215800B6E040DCE9EFF6E0FA93EA93A8E9BAE3DF
:1021680087DCA8ECB0E00E94F822A4E0B7E032DCFB
:10217800E0E1F7E00E947820A3E1B7E02BDCABE4D4
:10218800B7E00E947E20A7E6B7E024DCAAE1F6DBF0
:10219800EDE7F7E00E9484200E944420EC91E030B3
:1021A80051F00E9444200E948D2011F40E94972033
:1021B8000F5F1F4FF1CF0E94C11FA0E8B7E00E9438
:1021C80051200E944D200E949D200E94670A0E9473
:1021D8009D20E1E04E2EBEC30E94091F44240E94A8
:1021E800021F0E947120A3E8B7E00E94081CAEE815
:1021F800B7E0F0DBE3EBF7E0FA93EA93A0E2BEE4A2
:1022080037DCA8EEB3E00E94F822AEEBB7E0E2DBE1
:10221800EAECF7E00E947820ADECB7E0DBDBAAE05F
:10222800B8E00E947E20A6E2B8E0D4DBAAE1A6DBF3
:10223800ECE3F8E00E9484200E944420EC91E03016
:1022480051F00E9444200E948D2011F40E94972092
:102258000F5F1F4FF1CF0E9449200E94C11FAFE3BB
:10226800B8E00E9451200E944D200E949D200E94AB
:10227800670A0E949D20E1E04E2E6CC3A4E4B8E0FA
:10228800A9DB08951A930A930E94A120AEEDB8E045
:102298000E94A5200E94AA20A8E2B0E00E94AF20D8
:1022A8000E94B5200E94021F0E94C61FCB9931C010
:1022B800CB9BFECFE6E0F0E0E017F10739F5949B01
:1022C80002C0949801C0949A979B02C0979801C045
:1022D800979AAF9B02C0AF9801C0AF9ADF9B02C02C
:1022E800DF9801C0DF9ADA9B02C0DA9801C0DA9A57
:1022F80001E010E00630E0E01E073CF40E94C52033
:102308000E94CD200F5F1F4FF5CF02C0D80125D006
:1023180023C0CC991BC0CC9BFECFE6E0F0E0E017D1
:10232800F10719F401E010E002C00F5F1F4F0E948F
:10233800D7200E94AA200E94C520DF010E94AF205A
:102348000E94B520A7EEB8E00E94DA20CD9903C01C
:10235800CD9BFECFFFC2AACF97CFBA93AA932A9755
:102368000E94761F0E94B31F0E944020FE013496EF
:10237800FA93EA93A9EEB8E00E94D21DEE85E05DDB
:10238800EA870E945D0ADE0114960E947B1FAFEE69
:10239800B8E00E94821FA6EFB8E00E94891FAFEF45
:1023A800B8E00E94901FACE0B9E00E94350B21E034
:1023B80030E0CB9908C0CB9BFECF3A932A93A889EB
:1023C800B98917D011C0CC9909C0CC9BFECF0E9407
:1023D800971F14F00E94A01F0E94A81FCD9903C048
:1023E800CD9BFECF02C0E5CFCCCF0E94EF236096F5
:1023F8000895BA93AA93EA81FB81E130A0E0FA0735
:1024080009F058C0E881F981E130A0E0FA0761F4E9
:10241800949B02C0949801C0949A0E94DD20F0E039
:10242800F096A8E2B0E03FC0E230A0E0FA0761F41D
:10243800979B02C0979801C0979A0E94E420F0E009
:10244800F096A0E5B0E02FC0E330A0E0FA0761F411
:10245800AF9B02C0AF9801C0AF9A0E94EB20F0E09A
:10246800F096A8E7B0E01FC0E430A0E0FA0761F4F6
:10247800DF9B02C0DF9801C0DF9A0E94F220F0E0E3
:10248800F096A0EAB0E00FC0E530A0E0FA0789F4C2
:10249800DA9B02C0DA9801C0DA9A0E94F920F0E0CB
:1024A800F096A8ECB0E0EF2BE1E009F4E0E00E9440
:1024B800C8230FC0E230A0E0FA0721F4A881B9814F
:1024C80009D007C0E330A0E0FA0719F4A881B98160
:1024D80052D0AAC0BA93AA931A930A930E940021D1
:1024E800A3E1B9E00E94A5200E94AA200E9404212D
:1024F8000E940C210E94451F0E941321A8E1B9E007
:102508000E94DA200E94C61FCB9911C0CB9BFECF38
:10251800AA81BB81E8E20E943223EF5FFF4F0E944D
:1025280023210E94AA200E9404210E943121CC99D3
:102538001CC0CC9BFECFE7E1F0E0E017F10719F4EF
:1025480000E010E002C00F5F1F4F0E94D7200E94DA
:10255800AA200E9404210E9431210E94451F0E9446
:102568001321AAE1B9E00E94DA20CD9903C0CD9BDE
:10257800FECF58C0C9CFBA93AA931A930A930E9460
:10258800A120ACE1B9E00E94A5200E94AA200E94E7
:102598003421E65EFF4F0E940C210E94451F0E94D5
:1025A8003A21A5E2B9E00E94DA200E94C61FCB9921
:1025B80013C0CB9BFECFAA81BB81E8E20E943223E5
:1025C800E75EFF4F0E9423210E94AA200E94342127
:1025D800E75EFF4F0E943121CC991EC0CC9BFECFF5
:1025E800E7E0F0E0E017F10719F401E010E002C0BD
:1025F8000F5F1F4F0E94D7200E94AA200E943421FB
:10260800E75EFF4F0E9431210E94451F0E943A2138
:10261800A7E2B9E00E94DA20CD9903C0CD9BFECF96
:1026280001C0C5CF1981088124960895E8E2F0E039
:102638000F010E94DD200E944A21E0E5F0E00F0131
:102648000E94E4200E944A21E8E7F0E00F010E947E
:10265800EB200E944A21E0EAF0E00F010E94F220FC
:102668000E944A21E8ECF0E00F010E94F9200E9444
:102678004A2108951A930A930E94A120A9E2B9E079
:102688000E944F210E943A21A2E3B9E00E94DA2079
:102698000E94C61FCB9904C0CB9BFECFF8015AC13C
:1026A800CC9914C0CC9BFECFE7E0F0E0E017F1072F
:1026B80019F401E010E002C00F5F1F4F0E94451F90
:1026C8000E943A21A4E3B9E00E94DA20CD9905C01E
:1026D800CD9BFECFE62DF0E03DC1DCCF1A930A93E7
:1026E8000E94A120A6E3B9E00E944F210E94522136
:1026F800AAE3B9E00E94DA200E94C61FCB9904C061
:10270800CB9BFECFF80126C1CC9914C0CC9BFECF41
:10271800EFE1F0E0E017F10719F401E010E002C082
:102728000F5F1F4F0E94451F0E945221ACE3B9E082
:102738000E94DA20CD9905C0CD9BFECFED2DF0E0AB
:1027480009C1DCCF1A930A930E94A120AEE3B9E035
:102758000E944F210E946221A4E4B9E00E94DA207D
:102768000E94C61FCB9904C0CB9BFECFF801F2C0D4
:10277800CC9914C0CC9BFECFECE0F0E0E017F10759
:1027880019F401E010E002C00F5F1F4F0E94451FBF
:102798000E946221A6E4B9E00E94DA20CD9905C022
:1027A800CD9BFECFEC2DF0E0D5C0DCCF1A930A9379
:1027B8000E940021A8E4B9E00E944F210E947221E2
:1027C800ADE4B9E00E94DA200E94C61FCB9904C08C
:1027D800CB9BFECFF801BEC0CC9914C0CC9BFECFDA
:1027E800EFE0F0E0E017F10719F400E010E002C0B4
:1027F8000F5F1F4F0E94451F0E947221AFE4B9E08E
:102808000E94DA20CD9906C0CD9BFECFE091AA0B9D
:10281800F0E0A0C0DBCF1A930A930E940021A1E543
:10282800B9E00E944F210E941321A6E5B9E00E9459
:10283800DA200E94C61FCB9904C0CB9BFECFF801BB
:1028480089C0CC9914C0CC9BFECFE7E1F0E0E0173B
:10285800F10719F400E010E002C00F5F1F4F0E945B
:10286800451F0E941321A8E5B9E00E94DA20CD99FE
:1028780006C0CD9BFECFE091AB0BF0E06BC0DBCF89
:102888001A930A930E940021AAE5B9E00E944F21F9
:102898000E948221A1E6B9E00E94DA200E94C61FA8
:1028A800CB9904C0CB9BFECFF80154C0CC9914C07F
:1028B800CC9BFECFEBE3F0E0E017F10719F400E062
:1028C80010E002C00F5F1F4F0E94451F0E94822127
:1028D800A3E6B9E00E94DA20CD9906C0CD9BFECFD1
:1028E800E091AC0BF0E036C0DBCF1A930A930E945C
:1028F8000021A5E6B9E00E944F210E949221ACE692
:10290800B9E00E94DA200E94C61FCB9904C0CB9B75
:10291800FECFF8011FC0CC9914C0CC9BFECFEBE3CF
:10292800F0E0E017F10719F400E010E002C00F5FD3
:102938001F4F0E94451F0E949221AEE6B9E00E94F7
:10294800DA20CD9906C0CD9BFECFE091AD0BF0E02B
:1029580001C0DBCF0991199108950E94761F0E944A
:10296800A221A0E7B9E00E947B1FA9E7B9E00E9475
:10297800821FA2E8B9E00E94350BCB9905C0CB9B1A
:10298800FECFD9018DD01EC0CC9914C0CC9BFECFF0
:102998002F5F3F4FF50138965F012330E0E03E0797
:1029A8003CF002E010E021E030E0EFE0F0E05F0111
:1029B8000E94A81FCD9905C0CD9BFECF0E94EF2392
:1029C800BAC2DBCFCCCF0E94761F0E94A221ABE80F
:1029D800B9E00E947B1FA4E9B9E00E94821FADE91B
:1029E800B9E00E94891FA1EAB9E00E94901FA7EAF6
:1029F800B9E00E94350BCB9905C0CB9BFECFD9011E
:102A080061D013C0CC9909C0CC9BFECF0E94971F00
:102A180014F00E94A01F0E94A81FCD9905C0CD9B4D
:102A2800FECF0E94EF2387C2E6CFCFCF0E94761F4A
:102A38000E94A221ACEAB9E00E947B1FA5EBB9E095
:102A48000E94821FAAEBB9E00E94891FA1ECB9E09D
:102A58000E94350BCB9905C0CB9BFECFD9015DD029
:102A68001EC0CC9914C0CC9BFECF2F5F3F4FF50101
:102A780038965F012430E0E03E073CF003E010E0C8
:102A880021E030E0EFE0F0E05F010E94A81FCD995F
:102A980005C0CD9BFECF0E94EF234DC2DBCFC8CF30
:102AA8000E946A1FE130A0E0FA0719F48CDF0C9449
:102AB800F317E230A0E0FA0719F4B8DF0C94F31723
:102AC8000C94F3170E946A1FE130A0E0FA0731F472
:102AD800D1DD6E2E0E94A6210C94F317E230A0E0FF
:102AE800FA0731F4FBDDDE2E0E94A6210C94F317C1
:102AF800E330A0E0FA0731F425DECE2E0E94A621AD
:102B08000C94F317E430A0E0FA0731F44FDEE093B9
:102B1800AA0B0E94A62163C262C20E946A1FE1300A
:102B2800A0E0FA0731F477DEE093AB0B0E94AD2109
:102B380056C2E230A0E0FA0731F4A2DEE093AC0B13
:102B48000E94AD214CC2E330A0E0FA0731F4CDDE9B
:102B5800E093AD0B0E94AD2142C241C22897E4EC3C
:102B6800EABBECEFEBBBE8E7E7BBECEFE8BBE0EC7C
:102B7800E4BBE0E8E5BBE0E9E1BBE2BBE0E0E2B9E9
:102B8800E3B9E0936100E0936200E0936400E093AE
:102B98006500E0BFE7E0E3BFE4E6E2BFE0E0E1BFF5
:102BA800E1E0E7BFE0E0E0937D00E0939B00E8ED23
:102BB800E0939A00E6E0E0939D00E0E0E09398005F
:102BC800E3E3E09399000E94A722E3E0EA93E1E0BF
:102BD800EA93A0E048D1ECE8F0E0E883F983EE81DD
:102BE800EC7FE160EE83E37EEC60EE83EF81E078DA
:102BF800EB63EF83DE01FFD178948CC10E94FA1F4A
:102C08000E94E8231091AD0B20E030E0E4E6E2BF3B
:102C1800E091A20BF091A30B6091A40B7091A50B0E
:102C2800EC5EFF4F6F4F7F4FE093A20BF093A30B27
:102C38006093A40B7093A50BA6EABBE00E949E23A9
:102C4800EF5FFF4F6F4F7F4F0E94A3230E941C200E
:102C5800E0E6FAEE60E070E00E9488230E94D92343
:102C680009F04EC021E030E02630E0E03E070CF0ED
:102C780047C00E94B72131970E94C0230E94B72104
:102C88003097D9F5F901E130A0E0FA0731F4949BC7
:102C980002C0949801C0949A27C0E230A0E0FA07D5
:102CA80031F4979B02C0979801C0979A1DC0E330F2
:102CB800A0E0FA0731F4AF9B02C0AF9801C0AF9A09
:102CC80013C0E430A0E0FA0731F4DF9B02C0DF98BC
:102CD80001C0DF9A09C0E530A0E0FA0729F4DA9BC1
:102CE80002C0DA9801C0DA9AA8E2A29FF001A39F75
:102CF800F00DE050F0400E94CD202F5F3F4FB4CF41
:102D08004420B9F00E94391FA091AD0B1A1711F099
:102D18000E94B00A1091AD0B0E941C20E4EFF1E074
:102D280060E070E00E9488230E94D92311F40E9479
:102D38001B0B0E941C20A130E8E2BE07EBE68E07C1
:102D4800EEEE9E0710F00E94C22121E030E026300E
:102D5800E0E03E070CF040C0A8E2A29FF001A39F6C
:102D6800F00DEF5FFF4FDF01E091AB0BF0E0AE0F2E
:102D7800BF1F0E94B423E13021F4A091AC0BA03016
:102D880009F027C0F901E130A0E0FA0719F40E9420
:102D9800CD1F1BC0E230A0E0FA0719F40E94D61F2D
:102DA80014C0E330A0E0FA0719F40E94DF1F0DC039
:102DB800E430A0E0FA0719F40E94E81F06C0E530E5
:102DC800A0E0FA0731F40E94F11FE1E0F0E00E9470
:102DD800C0232F5F3F4FBBCF0E94EF2324960E9452
:102DE8000E201895BBDE90D10E94C2210E94AE1F12
:102DF8000E94E50D0E94CA0DE1EAE093AE0BE2EAFB
:102E0800E093AF0BE3EAE093B00BE4EAE093B10B95
:102E18000E94DF090E94040A0E940E0ADDD9A8EC6C
:102E2800B0E00E94F82288D9B79909C00E94330AF5
:102E3800E2EBFBE0ACE00E94A8230E94220CCD99B3
:102E480005C0CD9BFECF44240E94930BCC9904C0AF
:102E5800A8ECB9E00E94A20ECB9903C0CB9BFECF91
:102E68000DDADCCFFFCFAA93EA81E370EA83E98128
:102E7800E03019F0EA81E061EA83E881E03019F096
:102E8800EA81E068EA830E94CC21A7E00E94E02260
:102E9800AA810E94D12188C0BA93AA930E94CC210A
:102EA800A0E00E94D1210E94D5210E94DD210E942C
:102EB800E4210E94EA21AE2F0E942D1EAC81BD8123
:102EC800EC930E94BB229BC1AA930E94CC21A0E054
:102ED8000E94F0210E94F7210E94FE210E94D12128
:102EE80063C0BA93AA930E94CC21A3E00E94D12187
:102EF8000E94D521AE81BF81EC930E94E421AC8170
:102F0800BD81EC930E94E4210E94EA210E94DD2108
:102F18000E94BB2228960895AA930E94CC21A3E080
:102F28000E94E022AB810E94FE210E94F7210E94AC
:102F3800F0210E94D121249608950895AA931A9306
:102F4800AA9818E0FADFE981E07811F0AC9A01C09C
:102F5800AC98E981EE0FE983F0DFAD9AEEDFAD982A
:102F6800115081F7AA9A18813AC0AA93AB98A88100
:102F7800E5DFC8C0AA93AB9AA881E0DFC3C0AA93D3
:102F88001A93E981E695E695E6951E2FE4E5E19F1B
:102F9800F001DF01EA81F0E0EA0FFB1FE093CA0EBF
:102FA800F093CB0EE12F188123960895AA93E98117
:102FB800E068AE2FDADFE981EA93A981E0DFE06417
:102FC800AE2FD3DF0CC0AA93E981EA93A981EEDF83
:102FD800E091CA0EF091CB0EE453F14FE0812296B6
:102FE8000895AA930E9405223197E453F14FA881CE
:102FF800A083C0DF87C0BA93AA930E94E823A29A4D
:10300800AA9AA59AAD98A49AA39AA19AA998AAE06F
:10301800B0E00E94F822A99AEC81FD81309721F155
:10302800E681E3701E2FEC81FD81E681E695E69549
:10303800E7700E2FEC81FD81E781EF773E2FAC81A1
:10304800BD810E949A230E94341FAC81BD811296D3
:103058000E949A23E093E609F093E709AC81BD81C9
:1030680014960E949A230DC010E003E032E3E0E0DA
:10307800F0E00E94341FE0E0F0E0E093E609F0930E
:10308800E709E093E809F093E909A1E26EDFE12F8F
:10309800E460AE2F6ADFE02FE061AE2F66DFE32F3A
:1030A800E068AE2F62DFA0E260DFA1E022D0E1E0BD
:1030B800E093CD09E0E0E093CE09E1E0E093D309A5
:1030C800E093D409E093D509EFEFE093D609E1E066
:1030D800E093DD09EEEDF9E0FA93EA93EFEFEA9376
:1030E800A8E0B0E00E94B11D0FD0E1E00E94EF23FC
:1030F80086C0AA93E881E03011F0ECE001C0E8E076
:10310800AE2F33DF219608950E94E82330E0E09146
:10311800CE09E03009F03FEFE0E0EA93A0E046DFB7
:1031280008EF11E0F80101501040309719F0A32F73
:1031380058DFF8CFE0E0EA93A0E0ADD30E94EF2398
:103148000C94B31EAA931A930A93AC81A43518F46D
:10315800AB81A03320F0198108810C94BF1DEC814C
:10316800EA93AC8130DF1E2FEB81E770A1E00E946B
:103178000B230E2FEA81E03011F0102B03C0E02F53
:10318800E0951E23A12F2DDF198108810C94BF1D06
:10319800AA931A93ED81EA93AD8115DF1E2FE98179
:1031A800E73011F0E83039F4EB81EA93AA810E9404
:1031B8004F1EEB8308C0E33021F4EB81E095EB83ED
:1031C80002C0E03021F4EA81E0951E2302C0E2301B
:1031D80029F4EA81AB81EA231E2B0EC0E13029F4E1
:1031E800EA81AB81EA231E2707C0E43029F4EA818B
:1031F800E095AB81EA2B1E23A12FF3DE18812696DA
:103208000895AA9323970E94E623A889A43548F431
:10321800AF85A03330F4AE85A03019F0AD85A0306D
:1032280009F4D5C1EE85E887A889BB27EE85F0E0CB
:10323800AE0FBF1FA535E0E0BE0720F0A889E4E582
:10324800EA1BEE872D85AF85BB27ED85F0E0AE0F35
:10325800BF1FD19720F0AF85E0E3EA1BED87A98572
:10326800A63009F05BC0EC85E13009F4B0C1E33069
:1032780039F4E091E809F091E909309709F4A7C118
:103288000885ED85E695E695E6953E2FE22FE770F1
:1032980019F4AD852A17E9F0A02FBB27E32FF0E03A
:1032A8000E942A23AA85BB850E9408222695269576
:1032B8002695532F5F935F5FE22FAF91EA1748F08F
:1032C800102FE12F1150E03019F00E940D22F9CF94
:1032D800F1CFAE850A1711F1EE85AA85BB85F0E01E
:1032E8000E940822ED85E77009F03F5F20E02F93E8
:1032F8002F5FE32FAF91AE1788F41E851F931F5FD2
:10330800E02FAF91AE1718F40E940D22F7CFEE858B
:10331800AE81BF81F0E00E940822E9CFEF85E77017
:103328003E2FED85E03009F452C1EA85FB85EE8336
:10333800FF8310E00889303009F066C0AD85A830F9
:1033480008F45DC0E985E03011F0E33009F402C00B
:10335800E73009F402C0E83009F402C0E93009F4A2
:1033680002C0EA3021F40A93A88920DE04C0E630BE
:1033780011F40E941A221F931F5FEE85AF91AE17BA
:10338800B8F5A985A63069F40E941E22FA93EA933B
:103398000E9405223197E453F14FA0810E94961EA6
:1033A80026C0E985E93011F450E00EC0EA3011F486
:1033B8005FEF0AC00E941E220E9427225E2FE98525
:1033C800E73011F0E83021F40E942D225E2F06C06C
:1033D800E33011F4509502C0E03019F4A52FCADD8E
:1033E80006C00E943122EFEFEA93AD85D1DEC3CF4C
:1033F800EF85E85FEF87ED85E850ED87DFC05D85F5
:1034080020E0E0E0ED8781C0E32FAD85AE0FA93065
:1034180020F42D85E0E0ED8703C0E8E0E31B2E2FC4
:103428003A93A22F0E94441E4E2FE985E63029F5D3
:103438000E941A221F931F5FEE85AF91AE17E0F42A
:103448000E9405223197E453F14FE081E423AE2F27
:10345800E32F0E9413230E943722E32FA42F0E94F8
:103468001323E095E1215E2B0E941E22FA93EA9332
:10347800A52F0E94961EDECF2CC0E93011F450E033
:1034880003C0EA30A9F45FEF0E942D22AE2FE32F8C
:103498000E940B235E2F1F931F5FEE85AF91AE171F
:1034A80030F40E9431224A93A0E072DEF4CF11C0BA
:1034B8001F931F5FEE85AF91AE1758F40E9442220A
:1034C800AE2FE32F0E940B23EA934A93AD8560DE6B
:1034D800EFCFED85E03009F47AC0AD85A83028F447
:1034E800ED85E21B5E2FE0E003C0532FED85E85029
:1034F800ED8710E0EF85E85FEF87E8E0E31B2E2F0C
:103508000889EA85FB85EE83FF83E52FF0E0EC551B
:10351800F84F4491E985E63029F50E941A221F9355
:103528001F5FEE85AF91AE17E0F40E940522319738
:10353800E453F14FE081E423AE2FE22F0E940B23E6
:103548000E943722E22FA42F0E940B23E095E1214D
:103558005E2B0E941E22FA93EA93A52F0E94961EC4
:10356800DECF2CC0E93011F450E003C0EA30A9F4F2
:103578005FEF0E942D22AE2FE22F0E9413235E2FB1
:103588001F931F5FEE85AF91AE1730F40E94312272
:103598004A93A0E0FDDDF4CF11C01F931F5FEE85B5
:1035A800AF91AE1758F40E944222AE2FE22F0E942C
:1035B8001323EA934A93AD85EBDDEFCFE885AA851F
:1035C800BB85F0E0EA0FFB1FEA87FB87AACE0E94C3
:1035D800ED23619608950E944F2224F0E0E0F0E088
:1035E8000C944D1EA881B981A435E0E0BE0724F0F3
:1035F800E3E5F0E00C944D1EE881F9810C944D1E32
:103608000E944F2224F0E0E0F0E00C944D1EA881C7
:10361800B981D09724F0EFE2F0E00C944D1EE881D8
:10362800F9810C944D1EBA93AA9323970E945622AF
:103638008F01002E012A19F4E0E0F0E05FC00E943B
:103648005D220F820E945D220E820E945D22088602
:10365800EB85A885EA1718F4E0E0F0E04FC0F80120
:103668000F5F1F4F5491A885BB27EE27A50FBE1FDC
:10367800EB85F0E0EA17FB0718F0E0E0F0E03EC069
:10368800EE81E695E695E6954E2FEE81E77009F016
:103698004F5FEF81E030A1F0A985BA85EC93A8854A
:1036A800EB85EA1BF0E0DF01EF81F0E00E942A23BE
:1036B800DF01E42FF0E00E942A23E00FF11F1EC073
:1036C8009801E52FF0E00E0F1F1FA885AF5FA887B0
:1036D800A150EB85AE1760F4F9012F5F3F4FA4911D
:1036E800B0E0E42FF0E00E942A230E0F1F1FEDCF59
:1036F800F901E491A985BA85EC93F8010E94ED23BC
:103708002C960895E0E0E093CF09A091D009BB275B
:103718000E946222F0E0AE0FBF1FE091D409F0E0F2
:10372800AE0FBF1F6DDFE093D0090895AA932197CC
:103738000E945622309709F459C0AF81AA3009F483
:1037480051C0EF81EA93DE0117966DDFAF01309724
:1037580019F40E94ED23FFC1E091D309AE81EA0F6D
:103768003E2FA091CF09BB27F0E0EA0FFB1F8F0186
:103778000535E0E01E0718F0032F1127C3DFE0919D
:10378800CF09EA93E091D009EA93E885EA930E9489
:103798006222EA93E1E0EA935A934A93A7E031DD83
:1037A800E091CF09AE81EA0FEA93E091D009EA935C
:1037B800E091D309EA930E9462220E946922E09173
:1037C800CF09EA93A091D0090E946222EA0FEA93F6
:1037D8003A93E091D4090E946922E4E5F0E0E01709
:1037E800F10721F48FDF0E94ED23B5C10093CF09C3
:1037F8000E94ED23B0C1AA93EA81EA93AA814BD033
:10380800A88194DF0C94941E0E9473220E947B224C
:1038180019F0A12F8BDFFACF1881ADC10E94732256
:103828000E94832219F0A12F81DFFACF1881A3C14A
:10383800BA93AA931A930E947B2219F0A12F76DFDC
:10384800FACF18810C94941EBA93AA931A930E94E3
:10385800832219F0A12F6ADFFACF18810C94941EE5
:10386800AA93EA81EA93EA81EA93E091D609AA81C8
:10387800EA2319F0E091CD0902C0E091CE09AE2FFC
:1038880061DCE881EE0FE883E03011F4E1E0E883E1
:10389800E8810C94941EAA93A981BB279CDEE0932F
:1038A800CF09A881BB27ACDEE093D0090C944D1E4C
:1038B800AA932B970E94E623AC89BB278CDEEC8B5E
:1038C800AA89BB2788DEEA8BAB89BB2799DEEB8BFD
:1038D800A989BB2795DEE98BEA89E093CF09E989B5
:1038E800E093D009E1E0E887E989AB89EA1771F547
:1038F8001C89AA891A1731F41A93EC89EA93A1E072
:10390800AFDFC8C0AA891A1730F4EA89E11B0E2F65
:1039180041E050E006C0AA89E12FEA1B0E2F4FEFC5
:103928005FEF3B89E0E0EE830E948D2238F41A9322
:103938003A933395AA8594DFEF83F6CFEF81E88732
:10394800140FE02F0150E03061F7A4C0EA89AC8978
:10395800EA1739F53B89A9893A1730F4E989E31B55
:103968002E2FE1E0F0E006C0A989E32FEA1B2E2FF5
:10397800EFEFFFEFED87FE871C89E0E0EE830E9402
:103988008D2230F41A9313950E949522EF83F7CF76
:10399800EF81E887ED853E0FE22F2150E03061F797
:1039A80079C0E0E0EE830E948D2208F073C01C8984
:1039B8003B89E1E02E2F0E2FAA89BB27EC89F0E086
:1039C800AE1BBF0BAD0155232AF40FEFFA010E947D
:1039D8000723AF01FA01EE0FFF1FEF87F88BA989C4
:1039E800BB27EB89F0E0AE1BBF0BAD87BE87AE856A
:1039F800AA233AF42FEFED85FE850E940723ED8771
:103A0800FE87ED85FE85EE0FFF1FEB87FC871A9377
:103A18003A93A1E025DFE887E0E0E987EA87AD850A
:103A2800BE854A175B07BCF0100FEB85FC850E942A
:103A38009922A985BA854A175B072CF4320FAF85FE
:103A4800B8890E94A0221A930E949522E887EA89E1
:103A5800E11751F718C0320FEF85F8890E949922B3
:103A6800ED85FE85A985BA85EA17FB072CF4100FAA
:103A7800AB85BC850E94A0221A930E949522E887F4
:103A8800E989E31741F7EB89EF5FEB8BE989EF5F92
:103A9800E98B89CF0E94ED2365960895BA93AA937E
:103AA8000E94E623EE81FF81138101813281AE817C
:103AB800BF812C91011718F4502F012F152F2317B0
:103AC80018F4522F232F352FE12FAE81BF81139683
:103AD800EC93E32FAE81BF811296EC93E02FAE8179
:103AE800BF811196EC93AE81BF812C930E94ED2388
:103AF80032C0AA930E94E823E091D509E1503E2FF5
:103B0800DE011496CBDFED81E31B1E2FEC81E31B56
:103B18000E2FEF81EA93EF81EA931A93A985C8DE05
:103B28001A93EF81EA931A93A02FC2DEED81EA93EC
:103B38000A93E32FA985EA0FEA93A02FB9DEEF8154
:103B4800EA93ED81EA93E985EA93E32FA985AE0F1D
:103B5800AFDE0E94EF2328960895BA93AA93B981FD
:103B6800A881109631F0FC81EB816A8161931197ED
:103B7800E9F7EB81FC8125960895BA93AA93E99118
:103B8800F991A991B991CD016D916623E9F7119742
:103B980061916D936623E1F7FC010895BA93AA93A6
:103BA800E991F991A991B991CD0161916D9366233C
:103BB800E1F7FC010895BA93AA93AA81BB81CD01CC
:103BC800E881F9817191772311F4FC0109C06D91A5
:103BD8006717C1F30196DC01662391F7EE27FF27EB
:103BE8000C94B31EBA93AA93B981A881EC918A2F39
:103BF800AE2F0E94BE1EA82FEE2311F01196F6CF0D
:103C0800E894EC91ED3211F4689402C0EB3209F4B7
:103C1800119666277727EC918A2FAE2F0E94B51E42
:103C2800A82FEE2379F0FB01660F771F660F771F29
:103C38006E0F7F1F660F771FED91FF27E0536E0F02
:103C48007F1FE9CFFB011EF4E095F095319622968F
:103C58000895AA93E881E295EF70AE2FAA0FAA0FF4
:103C6800EA0FEE0FA991AF70EA0F0895AA93A991F0
:103C7800EE27AA5012F0E05FFCCFA65FEA0F089586
:103C8800AA93E881F0E0EC55F84FA491E9810E94ED
:103C98000B2322960895AA931A93E981E73011F02D
:103CA800EA3019F41091CD0909C0E93019F41091DE
:103CB800CE0904C0E830A1F41091DD09E091CE09E5
:103CC800E03049F0103019F0EFEF188129C0EA818F
:103CD800E095188125C0103019F4E0E0188120C063
:103CE800EA8118811DC0BA93AA93EA81E13021F4D0
:103CF800E881F981E49114C0E23029F4A881B981FE
:103D08000E94B4230DC0E33041F4A881B981E09149
:103D1800E609F091E709099503C0A881B981EC91FA
:103D280023960895AA93EB81E03029F4E881A981CC
:103D3800BA81EC9314C0E23031F4E881A981BA81E8
:103D48000E94C8230CC0E33051F4E981FA81FA9348
:103D5800EA93AA81E091E809F091E9090995249686
:103D68000895AA93E1E0F991F03310F0FA3308F0DE
:103D7800EE270895AA93E1E0F991F03229F0F9309D
:103D880010F0FE3008F0EE270895C39A8DE08A956A
:103D9800F1F7E0E0B299E1E00895A8810E947F0977
:103DA800C59A8BE18A95F1F70895E062AE2F0E94DB
:103DB8007F09A8810E947F09A8810E947F09A881A4
:103DC8000E947F09A8810895C59A8BE18A95F1F729
:103DD8000895AA93C598E3E0EA93A3E00E94B10985
:103DE800F3CFE7E0EA93AEE70E94B109A2EE0C94A4
:103DF800AC09F0E0ED93FC930C949A09ECE8F0E040
:103E0800E093D109F093D20908951A930A9300E038
:103E180010E00895E0E0EA93EA93E4E5EA93089570
:103E28000E941A13EAE1F7E0E093D109F093D2096E
:103E380001E010E00895E02FEE0FEE0FEE0FE55EC3
:103E4800EA93E7E2EA93A8E2A09FF001A19FF00DB0
:103E5800E050F040DF010E94B423AE2F0C94FF1B0A
:103E6800E093D109F093D2090895EBEAFBE0FA93C5
:103E7800EA93ECEAFBE0FA93EA93ADEABBE00C9430
:103E88005017E0E7F2E0ECCFF0E0EE0FFF1FAE0FC7
:103E9800BF1F0E949A23DF010C94121CF0E0EE0F62
:103EA800FF1FAE0FBF1F0E949A23DF010C94281C2E
:103EB800FE013296FA93EA93E0E0EA930895F80156
:103EC800DE011296EA0FFB1F0F010895BA93AA9319
:103ED800E881F9810895E82DE750EA93AA92AEE3C4
:103EE8000C94FF1B0E94E82300E010E008950E9454
:103EF800CA0BF5013096FA93EA9308950E94350BA0
:103F0800F5013896FA93EA9308950E94350BF50166
:103F18007096FA93EA9308950E94350BF501789606
:103F2800FA93EA9308952F5F3F4FF50138965F01A2
:103F38002530E0E03E07089504E010E021E030E09D
:103F4800EFE0F0E05F010895D8010E94790B00E0EE
:103F580010E008950E94670AE1E04E2E0895FE01E0
:103F68003496FA93EA93E0E0EA930895F801DE01C3
:103F78001496EA0FFB1F0F010895E0E0EA93EAE0C8
:103F8800EA930895E82DE750EA93AA92A0E20C94E8
:103F9800FF1B9498A8E2B0E0E0E00E94C823AEE4DA
:103FA800B0E008959798A0E5B0E0E0E00E94C8234B
:103FB800A6E7B0E00895AF98A8E7B0E0E0E00E9477
:103FC800C823AEE9B0E00895DF98A0EAB0E0E0E0E9
:103FD8000E94C823A6ECB0E00895DA98A8ECB0E0F7
:103FE800E0E00E94C823AEEEB0E008950A921A926B
:103FF800FA926A937A938A939A93AA93BA93EA93D2
:10400800FA93EFB7EA930895ED91FD913196FE93F7
:10401800EE930895E991EFBFF991E991B991A991CA
:104028009991899179916991F990199009900895D8
:10403800A091A20BB091A30B8091A40B9091A50B1A
:104048000895EC91D001EC93EE81FF813196EE83D7
:10405800FF830895FA93EA93E0E0EA930895FA93C8
:10406800EA93E2E3F0E0FA93EA93A5E0B0E00C9477
:10407800020DFE017596EECFAAE0B0E00C94B11DDA
:10408800A0E5BCE0A00FB11F0895A0EDB7E00C9427
:10409800F8220E94BC0D0C9488180E94081CF5CFC9
:1040A800DE01A455BF4F0D90BC91A02DEC91089551
:1040B800FE013296FA93EA930895FE013C96FA932C
:1040C800EA930895E885F985DE011E960895E88546
:1040D800F9853196E887F98708950E948818EFE0F6
:1040E800EA93E0E0EA930895FA93EA93A0EABFE03E
:1040F8000C943C0D0E94EE0CA4E6B0E00C94F8225F
:10410800FA93EA93A8EEB3E00E943C0D00E010E0B9
:104118000895AC910E949A1BD801E4E1F0E00E9456
:104128007A2330970895A0E2B3E00E94F8220C9415
:104138008818A4E6B0E00C94F82201E010E00C9492
:104148005D0A0E94CA0BECE2F7E08ACEE5E0EA934A
:10415800E6E1EA9308950E94B423AE2F0E94FF1B64
:1041680090CEE9E1EA93E6E1EA93F801A4E9BBE03D
:10417800EE0FFF1FAE0FBF1F0E949A23DF010C94A2
:10418800121CA8E2A09FF001A19FF00DE050F040A2
:104198000895BF01DF010E94B4230E942523DB019B
:1041A8000E94C8230895ECE2F7E05ACE0E941C1C36
:1041B80025CEA0E09499A1E0E0E00E942023089594
:1041C800A0E09799A1E0E0E00E9420230895A0E0F4
:1041D800AF99A1E0E0E00E9420230895A0E0DF99D4
:1041E800A1E0E0E00E9420230895A0E0DA99A1E090
:1041F800E0E00E942023089500E010E00C945D0A9E
:10420800AC81BD81E8E20E943223EF5FFF4F089541
:10421800DF010E94B423E05DAE2F0C94FF1BE9E19F
:10422800EA93E6E1EA93F801A4E6BBE0EE0FFF1F8C
:10423800AE0FBF1F0E949A23DF010C94121CE00FDF
:10424800F11F7E2F8F2FDF010E94B4230E942523A8
:10425800A72FB82F0E94C823A6CFE00FF11FD8CFF1
:10426800AC81BD81E8E20E9432230895E9E1EA9336
:10427800E6E1EA93F801AAEEB9E0EE0FFF1FAE0FF0
:10428800BF1F0E949A23DF010C94121CE05DD0012D
:104298000E94C82308950E94CA0BF3CDE9E1EA936E
:1042A800E6E1EA93F801AAEFB9E0EE0FFF1FAE0FBF
:1042B800BF1F0E949A23DF010C94121CE9E1EA93C4
:1042C800E6E1EA93F801AAE3BAE0EE0FFF1FAE0FAA
:1042D800BF1F0E949A23DF010C94121CEFE0EA939F
:1042E800E6E1EA93F801A4E5BAE0EE0FFF1FAE0F8E
:1042F800BF1F0E949A23DF010C94121CE9E1EA9384
:10430800E6E1EA93F801ACEEBAE0EE0FFF1FAE0F5C
:10431800BF1F0E949A23DF010C94121CE9E1EA9363
:10432800E6E1EA93F801A4E7BAE0EE0FFF1FAE0F4B
:10433800BF1F0E949A23DF010C94121C21E030E079
:104348000C945D0A6A92DA92CA92A091AA0B0C9414
:104358009017E091AB0BEA93E091AC0BEA93A09134
:10436800AD0B0C946817A8E2A29FF001A39FF00D73
:10437800EA5DFF4FDF010E94B0230895E0E0E0937B
:10438800A20BE093A30BE093A40BE093A50B089575
:104398000E94AC22A0ED0C94E0220E94E0220C9432
:1043A800BB220E94AC22A1ED0E94E022A1E00C9465
:1043B800C522AE2F0E942D1EA881B981EC930895C5
:1043C800A1E00E94C522AE2F0C942D1EAA81BB81AC
:1043D800EC93A0E00C94C5220E94E022A8810E94E0
:1043E8003A1EAE2F08950E94E022A9810E943A1E2B
:1043F800AE2F08950E94E022AA810E943A1EAE2F95
:104408000895AAECBEE000CEEA0FFB1FEE83FF83FF
:104418000895EC85EA93EF81F8853196EF83F88764
:104428003197FA93EA93A0E00C94961E0A93A88910
:104438000C94C317EC85EA93EF81F8853196EF83E6
:10444800F8873197089566277727DF01CB010C9409
:10445800771E5A93AA850C944F1E0A930395E889F0
:10446800EA935A9308955E2FEC85EA93AF81B88555
:10447800882799270E94771E1E2E08950A93039570
:10448800E889EA93EE85EA93E985FA853196E98722
:10449800FA873197D8CFBA93AA93A881B9810E9495
:1044A800DD2308950E94E623E091D109F091D20915
:1044B8000895F8010F5F1F4F04900895E091D10906
:1044C800F091D2093196E4910895EA93E0E0EA93F5
:1044D800E0E0F0E0FA93EA93A9E00C940519BA93A6
:1044E800AA931A93EC81EA93AC810C944F1CA9818E
:1044F800BA81ED91A983BA831E2FE0300895E9812E
:10450800FA813196E983FA833197E4911E2FE030DE
:104518000895AE81AF5FAE83A150E091D509AE1783
:1045280008953A93AA850C94341CA985BA85EA0F94
:10453800FB1FE987FA870895E985FA85EA1BFB0BD3
:10454800E987FA87089590989198889A899815C06C
:1045580089988898EE270000819B0895809B08958C
:1045680004D0899A02D0889AE1E06DE007C0899A60
:10457800889A03D08898F9DF89986BE16A95F1F7F2
:10458800089578E08898F1DF809BFECFEEDF88946D
:1045980081990894889AF1DFEE1F7A9599F77A2F16
:1045A800772311F4899801C0899ADFDF8898E5DFBD
:1045B800889ADBDF8998D9CF78E0AA0F10F4899818
:1045C80001C0899ADADF8898D0DF809BFECFCDDFE3
:1045D800889A7A9591F78998C8DF8898CEDFE1E0C4
:1045E8008199EE27889AC1CF109639F080ED97E02F
:1045F8000197F1F7A8951197C9F70895AE1BBF0B5E
:10460800860B970B0895F195E195F0400895EE23F8
:104618000E2EEA2F19F0EE0F0A94E9F70895EE230B
:104628000E2EEA2F19F0E6950A94E9F708956F2FF0
:10463800660F660B762F0895EA17E1E009F0EE277A
:104648000895EE23E1E009F0EE270895FA9FF02D92
:10465800EB9FF00DEA9FE02DF10D08956E2F6A9FF4
:10466800F0016B9FF00D089553D0F0DF0EF4CBDF0F
:1046780008950024112490E1AA0FBB1F001C111CEF
:104688000E1A1F0A18F40E0E1F1E01C0A1609A957B
:1046980099F7FD01D00108953BD0EBDF0EF4B3DFAD
:1046A80008953F934F935F9300241124442755277F
:1046B80030E2AA0FBB1F881F991F001C111C441F42
:1046C800551F0E1A1F0A460B570B28F40E0E1F1EF5
:1046D800461F571F01C0A1603A9559F7FD01BC015B
:1046E800D001CA015F914F913F910895E894B7FFB7
:1046F80004C0A095B09511966894F7FD84DFB9DFE2
:10470800FD010EF480DF0895CCDFFD01BC010895A2
:10471800E894F7FF02C077DF6894B7FF06C0A0955A
:10472800B095119600F8039400FA0895ED91FC9164
:1047380011970895ED91FD916D917D9108957E9366
:104748006E93FE93EE930895BB27EA0FFB1F02902A
:104758000A921197E1F70895119602D0FE2F11974A
:10476800E199FECFFF93FFB7F894AEBBBFBBE09AC9
:10477800EDB3FFBFFF91089507D01196EF93EF2F88
:1047880003D0EF9111970895E19B02C0A895FCCF43
:104798009FB7F894AEBBBFBBE09A8DB3E81719F08A
:1047A800EDBBE29AE19A9FBF089530976040704050
:1047B800089500240A160B060895AE17BF0786074A
:1047C800970708955A934A933A932A931A930A9308
:1047D80008955D814C813B812A8119810881089562
:00000001FF
